:020000040800F2
:1000000000002F2099E30008796400087B64000851
:100010007D6400087F64000881640008E9E300084B
:10002000000000000000000000000000D1C0000837
:10003000836400080000000061C000087DDC000847
:10004000E9E30008E9E30008E9E30008E9E3000860
:10005000E9E30008E9E30008E9E30008E9E3000850
:10006000E9E30008E9E30008E9E30008E9E3000840
:10007000E9E30008E9E30008E9E30008E9E3000830
:1000800085640008E9E30008E9E30008E9E3000803
:10009000E9E30008E9E30008E9E30008E9E3000810
:1000A000E9E30008E9E30008E9E30008E9E3000800
:1000B000E9E300088D64000899640008E9E300089A
:1000C000E9E30008E9E30008E9E30008E9E30008E0
:1000D000E9E30008E9E30008E9E30008E9E30008D0
:1000E000E9E30008E9E30008E9E30008E9E30008C0
:1000F000E9E30008A5640008E9E30008E9E3000873
:10010000E9E30008B1640008E9E30008E9E3000856
:10011000E9E30008E9E30008E9E30008E9E300088F
:10012000E9E30008E9E30008E9E30008E9E300087F
:10013000E9E30008E9E30008E9E30008E9E300086F
:10014000E9E30008E9E30008E9E30008E9E300085F
:10015000E9E30008E9E30008E9E30008E9E300084F
:10016000E9E30008E9E30008E9E30008E9E300083F
:10017000E9E30008E9E30008E9E30008E9E300082F
:10018000E9E30008E9E30008E9E30008E9E300081F
:10019000E9E30008E9E30008E9E30008E9E300080F
:1001A000E9E30008E9E30008E9E30008E9E30008FF
:1001B000E9E30008E9E30008E9E30008E9E30008EF
:1001C000E9E30008E9E30008E9E30008E9E30008DF
:1001D000E9E30008E9E30008E9E30008E9E30008CF
:1001E000E9E30008E9E30008E9E30008E9E30008BF
:1001F000E9E30008E9E30008E9E30008E9E30008AF
:10020000E9E30008E9E30008E9E30008E9E300089E
:10021000E9E30008E9E30008BD640008E9E3000839
:10022000E9E30008E9E30008E9E30008E9E300087E
:10023000E9E30008E9E30008E9E30008E9E300086E
:10024000E9E30008E9E30008E9E30008C9640008FD
:10025000D5640008E1640008E9E30008ED640008E3
:10026000F9640008E9E30008E9E30008E9E30008AD
:04027000FD64000821
:1002800010B5054C237833B9044B13B1044800E092
:1002900000BF0123237010BDB03106200000000014
:1002A00070C4030808B5034B1BB10349034800E0C1
:1002B00000BF08BD00000000B431062070C4030870
:1002C00081F0004102E000BF83F0004330B54FEA07
:1002D00041044FEA430594EA050F08BF90EA020F74
:1002E0001FBF54EA000C55EA020C7FEA645C7FEA07
:1002F000655C00F0E2804FEA5454D4EB5555B8BF2A
:100300006D420CDD2C4480EA020281EA030382EA9A
:10031000000083EA010180EA020281EA0303362D2C
:1003200088BF30BD11F0004F4FEA01314FF4801CFF
:100330004CEA113102D0404261EB410113F0004F11
:100340004FEA03334CEA133302D0524263EB4303C8
:1003500094EA050F00F0A780A4F10104D5F1200E66
:100360000DDB02FA0EFC22FA05F2801841F10001C1
:1003700003FA0EF2801843FA05F359410EE0A5F195
:1003800020050EF1200E012A03FA0EFC28BF4CF0C6
:10039000020C43FA05F3C01851EBE37101F000457C
:1003A00007D54FF0000EDCF1000C7EEB00006EEB89
:1003B0000101B1F5801F1BD3B1F5001F0CD3490813
:1003C0005FEA30004FEA3C0C04F101044FEA44526A
:1003D00012F5800F80F09A80BCF1004F08BF5FEAF1
:1003E000500C50F1000041EB045141EA050130BDD1
:1003F0005FEA4C0C404141EB010111F4801FA4F174
:100400000104E9D191F0000F04BF01460020B1FAC8
:1004100081F308BF2033A3F10B03B3F120020CDA00
:100420000C3208DD02F1140CC2F10C0201FA0CF0DE
:1004300021FA02F10CE002F11402D8BFC2F1200C43
:1004400001FA02F120FA0CFCDCBF41EA0C019040F9
:10045000E41AA2BF01EB0451294330BD6FEA040442
:100460001F3C1CDA0C340EDC04F11404C4F120022D
:1004700020FA04F001FA02F340EA030021FA04F33F
:1004800045EA030130BDC4F10C04C4F1200220FA96
:1004900002F001FA04F340EA0300294630BD21FAD4
:1004A00004F0294630BD94F0000F83F4801306BF9A
:1004B00081F480110134013D4EE77FEA645C18BF8E
:1004C0007FEA655C29D094EA050F08BF90EA020F25
:1004D00005D054EA000C04BF1946104630BD91EA1D
:1004E000030F1EBF0021002030BD5FEA545C05D120
:1004F0004000494128BF41F0004130BD14F580045F
:100500003CBF01F5801130BD01F0004545F0FE41D2
:1005100041F470014FF0000030BD7FEA645C1ABF07
:10052000194610467FEA655C1CBF0B46024650EA3E
:10053000013406BF52EA033591EA030F41F400216A
:1005400030BD00BF90F0000F04BF0021704730B5F0
:100550004FF4806404F132044FF000054FF00001C5
:1005600050E700BF90F0000F04BF0021704730B586
:100570004FF4806404F1320410F0004548BF40425B
:100580004FF000013EE700BF42004FEAE2014FEAB0
:1005900031014FEA02701FBF12F07F4393F07F4F8B
:1005A00081F06051704732F07F4208BF704793F08E
:1005B0007F4F04BF41F40021704730B54FF46074A1
:1005C00001F0004521F000411CE700BF50EA0102A4
:1005D00008BF704730B54FF000050AE050EA01024D
:1005E00008BF704730B511F0004502D5404261EBBD
:1005F00041014FF4806404F132045FEA915C3FF4FE
:10060000D8AE4FF003025FEADC0C18BF03325FEA9A
:10061000DC0C18BF033202EBDC02C2F1200300FA4B
:1006200003FC20FA02F001FA03FE40EA0E0021FA70
:1006300002F11444BDE600BF70B54FF0FF0C4CF45E
:10064000E06C1CEA11541DBF1CEA135594EA0C0F10
:1006500095EA0C0F00F0DEF82C4481EA030621EA4B
:100660004C5123EA4C5350EA013518BF52EA033586
:1006700041F4801143F4801338D0A0FB02CE4FF038
:100680000005E1FB02E506F00042E0FB03E54FF068
:100690000006E1FB03569CF0000F18BF4EF0010E60
:1006A000A4F1FF04B6F5007F64F5407404D25FEA5C
:1006B0004E0E6D4146EB060642EAC62141EA55510F
:1006C0004FEAC52040EA5E504FEACE2EB4F1FD0C51
:1006D00088BFBCF5E06F1ED8BEF1004F08BF5FEACF
:1006E000500E50F1000041EB045170BD06F0004681
:1006F00046EA010140EA020081EA0301B4EB5C042E
:10070000C2BFD4EB0C0541EA045170BD41F4801125
:100710004FF0000E013C00F3AB8014F1360FDEBF4A
:10072000002001F0004170BDC4F10004203C35DA26
:100730000C341BDC04F11404C4F1200500FA05F3A9
:1007400020FA04F001FA05F240EA020001F000424A
:1007500021F0004110EBD37021FA04F642EB0601C0
:100760005EEA430E08BF20EAD37070BDC4F10C04EA
:10077000C4F1200500FA04F320FA05F001FA04F2AE
:1007800040EA020001F0004110EBD37041F100019A
:100790005EEA430E08BF20EAD37070BDC4F12005A5
:1007A00000FA05F24EEA020E20FA04F301FA05F20D
:1007B00043EA020321FA04F001F0004121FA04F2B5
:1007C00020EA020000EBD3705EEA430E08BF20EA85
:1007D000D37070BD94F0000F0FD101F000464000BF
:1007E00041EB010111F4801F08BF013CF7D041EA41
:1007F000060195F0000F18BF704703F00046520045
:1008000043EB030313F4801F08BF013DF7D043EA15
:100810000603704794EA0C0F0CEA135518BF95EACB
:100820000C0F0CD050EA410618BF52EA4306D1D152
:1008300081EA030101F000414FF0000070BD50EA71
:10084000410606BF1046194652EA430619D094EAFB
:100850000C0F02D150EA013613D195EA0C0F05D1E5
:1008600052EA03361CBF104619460AD181EA030139
:1008700001F0004141F0FE4141F470014FF00000F1
:1008800070BD41F0FE4141F4780170BD70B54FF08C
:10089000FF0C4CF4E06C1CEA11541DBF1CEA13550C
:1008A00094EA0C0F95EA0C0F00F0A7F8A4EB0504EE
:1008B00081EA030E52EA03354FEA013100F08880E5
:1008C0004FEA03334FF0805545EA131343EA1263AE
:1008D0004FEA022245EA111545EA10654FEA002663
:1008E0000EF000419D4208BF964244F1FD0404F51C
:1008F000407402D25B084FEA3202B61A65EB030578
:100900005B084FEA32024FF480104FF4002CB6EB34
:10091000020E75EB030E22BFB61A754640EA0C00B4
:100920005B084FEA3202B6EB020E75EB030E22BFF4
:10093000B61A754640EA5C005B084FEA3202B6EB35
:10094000020E75EB030E22BFB61A754640EA9C00F4
:100950005B084FEA3202B6EB020E75EB030E22BFC4
:10096000B61A754640EADC0055EA060E18D04FEA82
:10097000051545EA16754FEA06164FEAC30343EA22
:1009800052734FEAC2025FEA1C1CC0D111F4801FEF
:100990000BD141EA00014FF000004FF0004CB6E7E8
:1009A00011F4801F04BF01430020B4F1FD0C88BF87
:1009B000BCF5E06F3FF6AFAEB5EB030C04BFB6EB92
:1009C000020C5FEA500C50F1000041EB045170BD85
:1009D0000EF0004E4EEA113114EB5C04C2BFD4EBB2
:1009E0000C0541EA045170BD41F480114FF0000E36
:1009F000013C90E645EA060E8DE60CEA135594EAB2
:100A00000C0F08BF95EA0C0F3FF43BAF94EA0C0FB4
:100A10000AD150EA01347FF434AF95EA0C0F7FF429
:100A200025AF104619462CE795EA0C0F06D152EA7D
:100A300003353FF4FDAE1046194622E750EA410661
:100A400018BF52EA43067FF4C5AE50EA41047FF472
:100A50000DAF52EA43057FF4EBAE12E74FEA4102D5
:100A6000B2F1E04324BFB3F5001CDCF1FE5C0DD90C
:100A700001F0004C4FEAC0024CEA5070B2F1004F56
:100A800040EB830008BF20F00100704711F0804F59
:100A900021D113F13872BCBF01F00040704741F41E
:100AA00080114FEA5252C2F11802C2F1200C10FA22
:100AB0000CF320FA02F018BF40F001004FEAC12306
:100AC0004FEAD32303FA0CFC40EA0C0023FA02F3AA
:100AD0004FEA4303CCE77FEA625307D150EA013380
:100AE0001EBF4FF0FE4040F44000704701F0004050
:100AF00040F0FE4040F40000704700BF70470438EB
:100B00007047704710B50446102139F0B9F82046F7
:100B100010BDA0F10400F5E7002210B58260044A80
:100B2000C16002F1080420320460426010BD00BFC1
:100B300058C5030870477047704744F2B062835845
:100B4000B3FA83F35B098350704744F2B46283586D
:100B5000B3FA83F35B098350704744F2B862835859
:100B6000B3FA83F35B098350704744F2BC62835845
:100B7000B3FA83F35B098350704744F2C062835831
:100B8000B3FA83F35B098350704744F2C46283581D
:100B9000B3FA83F35B098350704744F2C862835809
:100BA000B3FA83F35B098350704744F2CC628358F5
:100BB000B3FA83F35B098350704744F2D0628358E1
:100BC000B3FA83F35B098350704744F2D4628358CD
:100BD000B3FA83F35B098350704744F2D8628358B9
:100BE000B3FA83F35B098350704744F2DC628358A5
:100BF000B3FA83F35B098350704744F2E062835891
:100C0000B3FA83F35B098350704744F2E46283587C
:100C1000B3FA83F35B098350704744F2E862835868
:100C2000B3FA83F35B098350704744F2EC62835854
:100C3000B3FA83F35B098350704744F2F062835840
:100C4000B3FA83F35B098350704744F2F46283582C
:100C5000B3FA83F35B098350704744F2F862835818
:100C6000B3FA83F35B098350704744F2FC62835804
:100C7000B3FA83F35B098350704700F58E40036835
:100C8000B3FA83F35B090360704744F2047283583C
:100C9000B3FA83F35B098350704744F208728358B8
:100CA000B3FA83F35B098350704744F20C728358A4
:100CB000B3FA83F35B098350704744F21072835890
:100CC000B3FA83F35B098350704744F2147283587C
:100CD000B3FA83F35B098350704744F21872835868
:100CE000B3FA83F35B098350704744F21C72835854
:100CF000B3FA83F35B098350704744F22072835840
:100D0000B3FA83F35B098350704744F2247283582B
:100D1000B3FA83F35B098350704744F22872835817
:100D2000B3FA83F35B098350704744F22C72835803
:100D3000B3FA83F35B098350704744F230728358EF
:100D4000B3FA83F35B098350704744F234728358DB
:100D5000B3FA83F35B098350704744F238728358C7
:100D6000B3FA83F35B098350704744F23C728358B3
:100D7000B3FA83F35B098350704744F2407283589F
:100D8000B3FA83F35B098350704744F2447283588B
:100D9000B3FA83F35B098350704744F24872835877
:100DA000B3FA83F35B098350704744F24C72835863
:100DB000B3FA83F35B098350704744F2507283584F
:100DC000B3FA83F35B098350704744F2547283583B
:100DD000B3FA83F35B098350704744F25872835827
:100DE000B3FA83F35B098350704744F25C72835813
:100DF000B3FA83F35B098350704744F260728358FF
:100E0000B3FA83F35B098350704744F264728358EA
:100E1000B3FA83F35B098350704744F268728358D6
:100E2000B3FA83F35B098350704744F26C728358C2
:100E3000B3FA83F35B098350704744F270728358AE
:100E4000B3FA83F35B098350704744F2747283589A
:100E5000B3FA83F35B098350704744F27872835886
:100E6000B3FA83F35B098350704744F27C72835872
:100E7000B3FA83F35B098350704700F58F40036832
:100E8000B3FA83F35B090360704744F284728358BA
:100E9000B3FA83F35B098350704744F28872835836
:100EA000B3FA83F35B098350704744F28C72835822
:100EB000B3FA83F35B098350704744F2907283580E
:100EC000B3FA83F35B098350704744F294728358FA
:100ED000B3FA83F35B098350704744F298728358E6
:100EE000B3FA83F35B098350704744F29C728358D2
:100EF000B3FA83F35B098350704744F2A0728358BE
:100F0000B3FA83F35B098350704744F2A4728358A9
:100F1000B3FA83F35B098350704744F2A872835895
:100F2000B3FA83F35B098350704744F2AC72835881
:100F3000B3FA83F35B0983507047000010B5044691
:100F4000024B036000F044FE204610BD8CC5030830
:100F500010B50446FFF7F2FF204644F2C07138F0A6
:100F60008FFE204610BD000010B5044600F05AFF69
:100F7000084B7822236044F2B073E25044F2B47319
:100F80004FF4FA72E25044F2B8731E222046E25047
:100F900010BD00BF8CC5030810B5044600F043FB2C
:100FA000322304F58D5282F8423004F5915282F8D2
:100FB0003A3004F5945282F8363004F5975282F8AC
:100FC000323004F59A5282F82E3004F59D5282F8A0
:100FD0002A3004F5A05282F8263004F5A25282F895
:100FE000423004F5A55282F83E3004F5A85282F84A
:100FF0003A3004F5AB5282F8363004F5AE5282F83E
:10100000323004F5B15282F82E3004F5B45282F831
:101010002A3004F5B75204F5B95482F8263084F822
:10102000423010BD44F2BC7238B58358D84D0133FC
:10103000835044F2B873C3582A68013B9342044674
:1010400017DC00224FF40061D24808F003FB0022B5
:101050004FF48071D04808F0FDFA00224FF400519F
:10106000CC4808F0F7FA00224FF48061C94808F034
:10107000F1FA44F2B4730422E358013B93FBF2F318
:101080002A68934200F39B8144F2AC6100226358CA
:101090002A6001330F2BC8BF1346635044F2BC7162
:1010A00062507BB9322304F5B9501C3080F82630E9
:1010B0000FF0D4FBFF2304F58D501C3080F8263050
:1010C0000FF0CCFB44F2AC63E358012B0FD1322379
:1010D00004F58D501C3080F826300FF0BFFBFF2345
:1010E00004F59150143080F826300FF0B7FB44F22D
:1010F000AC63E358022B0FD1322304F59150143026
:1011000080F826300FF0AAFBFF2304F5945010302E
:1011100080F826300FF0A2FB44F2AC63E358032BB7
:101120000FD1322304F59450103080F826300FF0A0
:1011300095FBFF2304F597500C3080F826300FF014
:101140008DFB44F2AC63E358042B0FD1322304F53A
:1011500097500C3080F826300FF080FBFF2304F509
:101160009A50083080F826300FF078FB44F2AC63D8
:10117000E358052B0FD1322304F59A50083080F83C
:1011800026300FF06BFBFF2304F59D50043080F8F0
:1011900026300FF063FB44F2AC63E358062B0ED10C
:1011A000322304F59D50043080F826300FF056FBB2
:1011B000FF2304F5A05080F826300FF04FFB44F2D7
:1011C000AC63E358072B0ED1322304F5A05080F80E
:1011D00026300FF043FBFF2304F5A2501C3080F8AB
:1011E00026300FF03BFB44F2AC63E358082B0FD1E1
:1011F000322304F5A2501C3080F826300FF02EFB6D
:10120000FF2304F5A550183080F826300FF026FB98
:1012100044F2AC63E358092B0FD1322304F5A550F7
:10122000183080F826300FF019FBFF2304F5A85082
:10123000143080F826300FF011FB44F2AC63E35811
:101240000A2B0FD1322304F5A850143080F8263031
:101250000FF004FBFF2304F5AB50103080F826306C
:101260000FF0FCFA44F2AC63E3580B2B0FD132239E
:1012700004F5AB50103080F826300FF0EFFAFF2362
:1012800004F5AE500C3080F826300FF0E7FA44F247
:10129000AC63E3580C2B0FD1322304F5AE500C3065
:1012A00080F826300FF0DAFAFF2304F5B150083049
:1012B00080F826300FF0D2FA44F2AC63E3580D2BDD
:1012C0000FD1322304F5B150083080F826300FF0EA
:1012D000C5FAFF2304F5B450043080F826300FF02F
:1012E000BDFA44F2AC63E3580E2B0ED1322304F561
:1012F000B450043080F826300FF0B0FAFF2304F524
:10130000B75080F826300FF0A9FA44F2AC63E358E6
:101310000F2B0ED1322304F5B75080F826300FF092
:101320009DFAFF2304F5B9501C3080F826300FF0E9
:1013300095FA44F2AC63E35803F58D530C3354F83B
:1013400023302BB101224FF40061124808F082F9DA
:1013500044F2AC63E35803F58D531C3354F8233047
:101360002BB101224FF480710B4808F073F944F25D
:10137000AC63E35803F58E530C3354F823306BB150
:1013800001224FF40051034808F064F906E000BF61
:10139000CC310620000402420000024244F2AC6359
:1013A000E35803F58E531C3354F823303BB1BDE8AA
:1013B000384001224FF48061014808F04BB938BD34
:1013C0000004024210B5044600F5BC500B46064A24
:1013D0000A21183017F067F804F58B501030BDE87B
:1013E000104014F0F8B800BF80C5030838B544F2C7
:1013F000B07504464151FFF7E5FF4EF66023625990
:1014000093FBF2F344F2B472A35038BD00220260A1
:1014100070477047704700F598730868496803C3C0
:101420007047704702F0B0BA10B504464FF4AE7181
:1014300038F026FC204610BD10B50446D0F85801FF
:10144000FFF7E7FF2046BDE8104013F0F3B810B5F2
:101450000446D0F8400158B10368DB68984738B1BA
:10146000D4F8400103689B6898470023C4F84031D2
:1014700010BD000010B5044602F056FA014B20469C
:10148000236010BDC4C6030890F8252012B103687C
:101490005B69184770470020704781807047C180A2
:1014A00070470181704741817047704770477047AE
:1014B00070477047C38810B4D21A838812B2C91A11
:1014C000036809B25B6D5DF8044B18474FF6FF7374
:1014D00083814FF0FF3303621368C361106070476C
:1014E00090F825201AB190F8242002B118607047B6
:1014F00070477047704700207047B1F9043083800F
:1015000001207047704780F82610704790F8260039
:1015100070470022028042808280C28070477047FC
:1015200030B585B06D460368018104460146D3F8A5
:1015300084302846984795E807003C3484E8070043
:1015400005B030BD30B585B06D46036841810446B5
:101550000146D3F884302846984795E807003C3484
:1015600084E8070005B030BD0022028042808280FE
:10157000C280704780F83610704770B50446154633
:1015800003681B6B9847236829462046BDE87040D6
:101590005B6E18470020704708B5FFF775FF08BD60
:1015A000806C70477047704770477047704770474E
:1015B0007047704770477047704770477047704773
:1015C0007047704770477047704770477047704763
:1015D0007047704770477047704770477047704753
:1015E0007047704770477047704770477047704743
:1015F0007047704770477047704770477047704733
:101600007047704770477047704770477047704722
:101610007047704770477047704770477047704712
:10162000704770477047704700F51F73994270B557
:1016300004460D4602D10368DB6A984704F52D7312
:101640009D4203D1236820461B6B984704F53B73EA
:101650009D4203D1236820465B6B984704F549738C
:101660009D4203D1236820469B6B984704F557732E
:101670009D4203D123682046DB6B984704F56573D0
:101680009D4203D1236820461B6C984704F5737371
:101690009D4203D1236820465B6C984704F20443C3
:1016A0009D4203D1236820469B6C984704F23C433B
:1016B0009D4203D1236820461B6D984704F2744372
:1016C0009D4203D1236820465B6D984704F2AC43EA
:1016D0009D4203D1236820469B6D984704F2E44362
:1016E0009D4203D123682046DB6D984704F21C53CA
:1016F0009D4203D1236820461B6E984704F2545341
:101700009D4203D1236820465B6E984704F28C53B8
:101710009D4203D1236820469B6E984704F2C45330
:101720009D4203D123682046DB6E984704F2FC53A8
:101730009D4203D1236820461B6F984704F234630F
:101740009D4203D1236820465B6F984704F26C6387
:101750009D4203D1236820469B6F984704F2A463FF
:101760009D4203D123682046DB6F984704F2DC6377
:101770009D4204D123682046D3F88030984704F274
:1017800014739D4204D123682046D3F884309847CF
:1017900004F24C739D4204D123682046D3F888306C
:1017A000984704F284739D4204D123682046D3F8FD
:1017B0008C30984704F2BC739D4204D123682046C4
:1017C000D3F89030984704F2F4739D4204D1236813
:1017D0002046D3F89430984704F62C039D4204D158
:1017E00023682046D3F89830984704F664039D4256
:1017F00004D123682046D3F89C30984704F69C0314
:101800009D4204D123682046D3F8A030984704F6BF
:10181000D4039D4204D123682046D3F8A4309847CE
:1018200004F60C139D4204D123682046D3F8A83057
:10183000984704F644139D4204D123682046D3F808
:10184000AC30984704F67C139D4204D123682046AF
:10185000D3F8B030984704F6B4139D4204D12368FE
:101860002046D3F8B430984704F6EC139D4204D1D7
:1018700023682046D3F8B830984704F624239D42C5
:1018800004D123682046D3F8BC30984704F65C2383
:101890009D4204D123682046D3F8C030984704F60F
:1018A00094239D4204D123682046D3F8C43098473E
:1018B00004F6CC239D4204D123682046D3F8C830D7
:1018C000984704F604339D4204D123682046D3F898
:1018D000CC30984704F63C339D4204D1236820461F
:1018E000D3F8D030984704F674339D4204D123686E
:1018F0002046D3F8D430984704F6AC339D4204D147
:1019000023682046D3F8D830984704F6E4339D4244
:1019100004D123682046D3F8DC30984704F61C43F2
:101920009D4204D123682046D3F8E030984704F65E
:1019300054439D4204D123682046D3F8E4309847AD
:1019400004F68C439D4204D123682046D3F8E83046
:10195000984704F6C4439D4204D123682046D3F837
:10196000EC30984704F6FC439D4204D1236820469E
:10197000D3F8F030984704F634539D4204D12368DD
:101980002046D3F8F430984704F66C539D4204D1B6
:1019900023682046D3F8F830984704F6A4539D42B4
:1019A00004D123682046D3F8FC30984704F6DC5372
:1019B0009D4204D123682046D3F80031984704F6AD
:1019C00014639D4204D123682046D3F8043198471C
:1019D00004F64C639D4204D123682046D3F80831B5
:1019E000984704F684639D4204D123682046D3F8C7
:1019F0000C31984704F6BC639D4204D1236820460D
:101A0000D3F81031984704F6F4639D4204D123685B
:101A10002046D3F81431984704F62C739D4204D124
:101A200023682046D3F81831984704F664739D4222
:101A300004D123682046D3F81C31984704F69C73E0
:101A40009D4204D123682046D3F82031984704F6FC
:101A5000D4739D4204D123682046D3F8243198479B
:101A600004F580530C339D4204D123682046D3F8FB
:101A70002831984704F5825304339D4206D12368E8
:101A80002046BDE87040D3F82C31184770BD704730
:101A9000704770477047034670B4C6684568741055
:101AA000F60705EB04009B6844BF2C59E35870BC53
:101AB000184743682BB183682BB9C06800F0010058
:101AC00070471846704701207047034630B4C56818
:101AD00044686A10ED0704EB02009B6848BFA258F7
:101AE00030BC48BFD358184743682BB183682BB923
:101AF000C06800F001007047184670470120704729
:101B0000A0F84A107047B0F84A00704710B5044674
:101B1000082138F0B5F8204610BD10B504464C2118
:101B200038F0AEF8204610BD10B50446642138F0F8
:101B3000A7F8204610BD10B50446102138F0A0F8D3
:101B4000204610BD10B50446102138F099F8204603
:101B500010BD000070B5036804465E6B114B8DB27A
:101B60001B682BB96C21104B104A114839F058FCF6
:101B70001049828D0988914203D80F4B0B4A6D2181
:101B8000F3E713F812200D4B1B6853F8220003688B
:101B90001B6B9847291A33462046BDE8704009B2AE
:101BA000184700BFD47108203DC9030871CB030852
:101BB0007FC90308D8710820C0C90308DC71082058
:101BC00010B5D1E90E2304460EF013FB204610BDDC
:101BD00010B50446024B036010F0A6FB204610BD72
:101BE00008CA030810B50446054B036010F09CFBBF
:101BF000204644F2AC6138F043F8204610BD00BFE7
:101C000008CA030800F583531C33994210B405D168
:101C100003681146DB6C5DF8044B18475DF8044B14
:101C200070472DE9F04190F846300446002B50D023
:101C3000B0F84830B0F84A5001339BB2AB42A0F83C
:101C4000483046D35B1B9DB2B0F85220B0F84E30FE
:101C5000866DD21A12B2B0F84C3000212846B04737
:101C6000B4F85030B4F854200646D21A12B2B4F880
:101C70004C300021E76D2846B847B4F85020B4F83E
:101C80004E100244314412B209B22046FFF712FC52
:101C9000B4F84A30B4F84C10B4F848200B449A42D7
:101CA00017D3002384F84630A4F8483012F026FCFD
:101CB0002146043012F047FC206E50B10368DB6807
:101CC000984730B1206E2146BDE8F04103689B681B
:101CD0001847BDE8F08100224FF0FF318260C0E973
:101CE000002170470A4A026000228280C28002817D
:101CF00042818281C28102824282C0E90522C261A0
:101D00000284428480F82420012280F82520704734
:101D100040F3030870B50446154603681B6B9847EB
:101D2000236829462046BDE870405B6B184770B5B4
:101D300004461E46BDF91050FFF7ECFF23683146FC
:101D400020469A6B9047236829462046BDE870409C
:101D5000DB6B1847002370B58380114B114D036076
:101D60002A68064692F8581009B1D06C00B99068FC
:101D70000368DB6A9847B0FA80F42B686409D86C72
:101D800028B10368DB6A9847002808BF01242CB9F2
:101D9000054B064A2C21064839F042FB304670BDFF
:101DA00018C703087C71082083C8030838CB0308D0
:101DB000E1C8030838B504460D46FFF7CBFF034BD7
:101DC000E56023602433A360204638BDE0EE0308BD
:101DD000138883860FF07EBA10B5044626220021B0
:101DE00039F0A7FB2046FFF77DFF0023A36284F8AC
:101DF0002C30012384F824304FF6FF73044AE38526
:101E0000238684F832302260A386204610BD00BFAE
:101E100094F10308C26B4901914202D0C1630EF0F4
:101E200003BF70472DE9F04F04464FF000082746E6
:101E3000F1B014F06DFADB4BC4F83C8047F8403B3E
:101E400026224146384639F074FB3846FFF74AFFF0
:101E5000D54B04F16C092364FF23C4F8688084F82F
:101E6000663048460EF0C0FE04F1DC0341461846D9
:101E70006493FFF79FFF04F1F003184603930EF0FD
:101E8000B3FE04F5B073414618466593FFF792FF21
:101E900004F5BA73184604930EF0A6FE04F5F27327
:101EA000414618466693FFF785FF04F5FC73184614
:101EB00005930EF099FE04F51A7341461846679390
:101EC000FFF778FF04F51F7318461693FFF784FF9A
:101ED00004F52D7318461793FFF77EFF04F53B7347
:101EE00018461893FFF778FF04F5497318461993BD
:101EF000FFF772FF04F5577318461A93FFF76CFF4C
:101F000004F5657318461B93FFF766FF04F57373BA
:101F100018461C93FFF760FF04F2044318461D9314
:101F2000FFF75AFF04F23C4318461E93FFF754FF95
:101F300004F2744318461F93FFF74EFF04F2AC43BC
:101F400018462093FFF748FF04F2E4431846219314
:101F5000FFF742FF04F21C5318462293FFF73CFFA1
:101F600004F2545318462393FFF736FF04F28C53C0
:101F700018462493FFF730FF04F2C4531846259304
:101F8000FFF72AFF04F2FC5318462693FFF724FFBD
:101F900004F2346318462793FFF71EFF04F26C63C4
:101FA00018462893FFF718FF04F2A46318462993F4
:101FB000FFF712FF04F2DC6318462A93FFF70CFFC9
:101FC00004F2147318462B93FFF706FF04F24C73C8
:101FD00018462C93FFF700FF04F2847318462D93E4
:101FE000FFF7FAFE04F2BC7318462E93FFF7F4FED7
:101FF00004F2F47318462F93FFF7EEFE04F62C0359
:1020000018463093FFF7E8FE04F664031846319350
:10201000FFF7E2FE04F69C0318463293FFF7DCFE5E
:1020200004F6D40318463393FFF7D6FE04F60C13D8
:1020300018463493FFF7D0FE04F644131846359340
:10204000FFF7CAFE04F67C1318463693FFF7C4FE6A
:1020500004F6B41318463793FFF7BEFE04F6EC13EC
:1020600018463893FFF7B8FE04F624231846399330
:10207000FFF7B2FE04F65C2318463A93FFF7ACFE76
:1020800004F6942318463B93FFF7A6FE04F6CC23F0
:1020900018463C93FFF7A0FE04F6043318463D9320
:1020A000FFF79AFE04F63C3318463E93FFF794FE82
:1020B00004F6743318463F93FFF78EFE04F6AC33F4
:1020C00018464093FFF788FE04F6E4331846419320
:1020D000FFF782FE04F61C4318464293FFF77CFE8E
:1020E00004F6544318464393FFF776FE04F68C43F8
:1020F00018464493FFF770FE04F6C4431846459310
:10210000FFF76AFE04F6FC43184641F27015469349
:10211000FFF762FE04F6345318464793FFF75CFE60
:1021200004F66C5318464893FFF756FE04F6A45382
:1021300018464993FFF750FE04F6DC5318464A93BD
:10214000FFF74AFE04F6146318464B93FFF744FE6C
:1021500004F64C6318464C93FFF73EFE04F6846386
:1021600018464D93FFF738FE04F6BC6318464E93AD
:10217000FFF732FE04F6F46318464F93FFF72CFE88
:1021800004F62C7318465093FFF726FE04F664738A
:1021900018465193FFF720FE04F69C73184652939D
:1021A00004E000BF08CA030808F20308FFF714FEA2
:1021B00004F6D47318465393FFF70EFE04F58053CC
:1021C0000C3318460693FFF707FE04F582530433D9
:1021D00004F5835A0AF11C0A184604EB050B079311
:1021E000FFF7FAFD50460CF0F1FD41462622584615
:1021F00039F09FF95846FFF775FD41F29813DC4A14
:10220000E118E2504FF6FF7204F58D538A806A930D
:10221000C3F800804FF47F0141F2A413E15041F272
:10222000AC1104F58D530C338BF838808BF8398062
:1022300024F801809A80DA80A3F80280C3F808802D
:10224000CC4B635141F2BC156319CBF8488018465A
:1022500008930DF00DFEC84B41466351089B251DA8
:1022600083F8468041F2042344F8038041F20823B6
:1022700044F8038041F20C2344F8038041F2102318
:1022800024F80380089BC3E91688C3F8608004F52E
:10229000915318466893FFF78DFD04F5915314335D
:1022A000184609930DF0E4FD04F593531C334146A1
:1022B00018465493FFF77EFD04F5945310331846E7
:1022C0000A930DF0D5FD04F5965318334146184690
:1022D0005593FFF76FFD04F597530C3318460B9396
:1022E0000DF0C6FD04F59953143341461846569334
:1022F000FFF760FD04F59A53083318460C930DF070
:10230000B7FD04F59C531033414618465793FFF729
:1023100051FD04F59D53043318460D930DF0A8FDAF
:1023200004F59F530C33414618465893FFF742FD7E
:1023300004F5A053184662930DF09AFD04F5A253DC
:102340000833414618465993FFF734FD04F5A2536C
:102350001C3318460E930DF08BFD04F5A553043382
:10236000414618465A93FFF725FD04F5A553183347
:1023700018460F930DF07CFD04F5A853414618460E
:102380006993FFF717FD04F5A8531433184610930B
:102390000DF06EFD04F5AA531C33414618465B93BD
:1023A000FFF708FD04F5AB531033184611930DF0F9
:1023B0005FFD04F5AD531833414618465C93FFF7B3
:1023C000F9FC04F5AE530C33184612930DF050FD92
:1023D00004F5B0531433414618465D93FFF7EAFC09
:1023E00004F5B1530833184613930DF041FD04F57D
:1023F000B3531033414618465E93FFF7DBFC04F5F8
:10240000B4530433184614930DF032FD04F5B6535B
:102410000C33414618465F93FFF7CCFC04F5B753E5
:10242000184663930DF024FD04F5B9530833414673
:1024300018466093FFF7BEFC04F5B9531C331846E9
:1024400015930DF015FD04F5BC53043341461846B1
:102450006193FFF7AFFC44F28C63484AE618E25000
:1024600044F29463464A7460E25044F2986344F83C
:10247000038044F29C63E2186B92424A04F5BD501B
:10248000E2506B9B404A5C6044F2A463E25044F229
:10249000A86342F6E06144F803800C300FF03AFF85
:1024A0004FF4F07342464146384600934FF4487368
:1024B000FFF73DFC4FF07F4339460A27A3662846C5
:1024C0000BF0CCFF484600974FF44873E4220121FB
:1024D000FFF72DFC6FF0FF03C4F8E8304FF6E07310
:1024E000A022A4F8EC30649B1146C4F8943048460E
:1024F0000EF090FCA022484646F260310EF095FCAA
:1025000039464846FFF786FC484601210EF098FC04
:10251000494628460BF0A2FF00974FF448734FF44A
:102520008E724FF0FF310398FFF701FC6FF0FF034D
:102530004FF6E079A022C4F86C31659B1146C4F8CF
:102540001831A4F8709103980EF064FCA02246F2B2
:10255000603103980EF069FC39460398FFF75AFC86
:10256000012103980EF06CFC039928460EE000BF91
:1025700038C7030848C70308D8C7030858C8030862
:102580002916000870C80308051C00080BF066FF38
:1025900000974FF4487340F2551201210498FFF759
:1025A000C6FB6FF0FF03A022C4F8F031669B114612
:1025B000C4F89C31A4F8F49104980EF02BFCA022EE
:1025C00046F2603104980EF030FC39460498FFF76B
:1025D00021FC012104980EF033FC049928460BF0ED
:1025E0003DFF00974FF448734FF4C7724FF0FF312F
:1025F0000598FFF79CFB6FF0FF03A022A4F87892E8
:102600004FF00109C4F87432679B1146C4F82032B8
:1026100005980EF0FFFBA02246F2603105980EF0FF
:1026200004FC39460598FFF7F5FB012105980EF0EB
:1026300007FC0599284670AF0BF010FFD7226121E7
:102640001698FFF767FB27F8088D6DAB19463A46D9
:102650001698ADF8B491FFF7BBFBC4F8A4621699C5
:1026600028460BF0FBFED72287211798FFF752FB75
:102670006DAB19463A461798ADF8B491ADF8B881EC
:10268000FFF7A6FBC4F8DC62179928460BF0E6FEBC
:10269000D722AD211898FFF73DFB6DAB19463A469E
:1026A0001898ADF8B491ADF8B881FFF791FBC4F874
:1026B0001463189928460BF0D1FED722D32119981C
:1026C000FFF728FB6DAB19463A461998ADF8B4915F
:1026D000ADF8B881FFF77CFBC4F84C631999284624
:1026E0000BF0BCFED722F9211A98FFF713FB6DAB54
:1026F00019463A461A98ADF8B491ADF8B881FFF78B
:1027000067FBC4F884631A9928460BF0A7FED7220A
:1027100040F21F111B98FFF7FDFA6DAB19463A46C0
:102720001B98ADF8B491ADF8B881FFF751FBC4F830
:10273000BC631B9928460BF091FED72240F245114D
:102740001C98FFF7E7FA6DAB19463A461C98ADF8AE
:10275000B491ADF8B881FFF73BFBC4F8F4631C9962
:1027600028460BF07BFED72240F26B111D98FFF735
:10277000D1FA6DAB19463A461D98ADF8B491ADF853
:10278000B881FFF725FBC4F82C641D9928460BF08F
:1027900065FED72240F291111E98FFF7BBFA6DAB90
:1027A00019463A461E98ADF8B491ADF8B881FFF7D6
:1027B0000FFBC4F864641E9928460BF04FFED72225
:1027C00040F2B7111F98FFF7A5FA6DAB19463A46CC
:1027D0001F98ADF8B491ADF8B881FFF7F9FAC4F8D5
:1027E0009C641F9928460BF039FED72240F2DD1178
:1027F0002098FFF78FFA6DAB19463A462098ADF84E
:10280000B491ADF8B881FFF7E3FAC4F8D464209925
:1028100028460BF023FED72240F203212198FFF730
:1028200079FA6DAB19463A462198ADF8B491ADF8F6
:10283000B881FFF7CDFAC4F80C65219928460BF052
:102840000DFED72240F229212298FFF763FA6DABE3
:1028500019463A462298ADF8B491ADF8B881FFF721
:10286000B7FAC4F84465229928460BF0F7FDD72241
:1028700040F24F212398FFF74DFA6DAB19463A46C7
:102880002398ADF8B491ADF8B881FFF7A1FAC4F878
:102890007C65239928460BF0E1FDD72240F2752193
:1028A0002498FFF737FA6DAB19463A462498ADF8ED
:1028B000B491ADF8B881FFF78BFAC4F8B4652499E8
:1028C00028460BF0CBFDD72240F29B212598FFF73D
:1028D00021FA6DAB19463A462598ADF8B491ADF89A
:1028E000B881FFF775FAC4F8EC65259928460BF016
:1028F000B5FD40F20F1261212698FFF70BFA6DAB80
:1029000019463A462698ADF8B491ADF8B881FFF76C
:102910005FFAC4F82466269928460BF09FFD40F222
:102920000F1287212798FFF7F5F96DAB19463A4644
:102930002798ADF8B491ADF8B881FFF749FAC4F81B
:102940005C66279928460BF089FD40F20F12AD21F5
:102950002898FFF7DFF96DAB19463A462898ADF88D
:10296000B491ADF8B881FFF733FAC4F894662899AA
:1029700028460BF073FD40F20F12D3212998FFF780
:10298000C9F96DAB19463A462998ADF8B491ADF83E
:10299000B881FFF71DFAC4F8CC66299928460BF0D8
:1029A0005DFD40F20F12F9212A98FFF7B3F96DABE4
:1029B00019463A462A98ADF8B491ADF8B881FFF7B8
:1029C00007FAC4F804672A9928460BF047FD40F23D
:1029D0000F1240F21F112B98FFF79CF96DAB1946AF
:1029E0003A462B98ADF8B491ADF8B881FFF7F0F9FD
:1029F000C4F83C672B9928460BF030FD40F20F12CB
:102A000040F245112C98FFF785F96DAB19463A460F
:102A10002C98ADF8B491ADF8B881FFF7D9F9C4F8A6
:102A200074672C9928460BF019FD40F20F1240F202
:102A30006B112D98FFF76EF96DAB19463A462D983C
:102A4000ADF8B491ADF8B881FFF7C2F9C4F8AC673E
:102A50002D9928460BF002FD40F20F1240F2911121
:102A60002E98FFF757F96DAB19463A462E98ADF8F8
:102A7000B491ADF8B881FFF7ABF9C4F8E4672E99CB
:102A800028460BF0EBFC40F20F1240F2B7112F98E2
:102A9000FFF740F96DAB19463A462F98ADF8B4915F
:102AA000ADF8B881FFF794F9C4F81C682F9928464F
:102AB0000BF0D4FC40F20F1240F2DD113098FFF71A
:102AC00029F96DAB19463A463098ADF8B491ADF896
:102AD000B881FFF77DF9C4F85468309928460BF0A7
:102AE000BDFC40F20F1240F203213198FFF712F9BA
:102AF0006DAB19463A463198ADF8B491ADF8B8814E
:102B0000FFF766F9C4F88C68319928460BF0A6FCEB
:102B100040F20F1240F229213298FFF7FBF86DAB1B
:102B200019463A463298ADF8B491ADF8B881FFF73E
:102B30004FF9C4F8C468329928460BF08FFC40F274
:102B40000F1240F24F213398FFF7E4F86DAB1946AE
:102B50003A463398ADF8B491ADF8B881FFF738F93B
:102B6000C4F8FC68339928460BF078FC40F20F1249
:102B700040F275213498FFF7CDF86DAB19463A460F
:102B80003498ADF8B491ADF8B881FFF721F9C4F8E5
:102B90003469349928460BF061FC40F20F1240F280
:102BA0009B213598FFF7B6F86DAB19463A46359834
:102BB000ADF8B491ADF8B881FFF70AF9C4F86C69C3
:102BC000359928460BF04AFC4FF4A47261213698DF
:102BD000FFF7A0F86DAB19463A463698ADF8B491B8
:102BE000ADF8B881FFF7F4F8C4F8A469369928461F
:102BF0000BF034FC4FF4A47287213798FFF78AF862
:102C00006DAB19463A463798ADF8B491ADF8B88136
:102C1000FFF7DEF8C4F8DC69379928460BF01EFC94
:102C20004FF4A472AD213898FFF774F86DAB1946D4
:102C30003A463898ADF8B491ADF8B881FFF7C8F8C6
:102C4000C4F8146A389928460BF008FC4FF4A472B3
:102C5000D3213998FFF75EF86DAB19463A4639989B
:102C6000ADF8B491ADF8B881FFF7B2F8C4F84C6A8A
:102C7000399928460BF0F2FB4FF4A472F9213A98E7
:102C8000FFF748F86DAB19463A463A98ADF8B4915B
:102C9000ADF8B881FFF79CF8C4F8846A3A992846E1
:102CA0000BF0DCFB4FF4A47240F21F113B98FFF7CE
:102CB00031F86DAB19463A463B98ADF8B491ADF892
:102CC000B881FFF785F8C4F8BC6A3B9928460BF039
:102CD000C5FB4FF4A47240F245113C98FFF71AF877
:102CE0006DAB19463A463C98ADF8B491ADF8B88151
:102CF000FFF76EF8C4F8F46A3C9928460BF0AEFB77
:102D00004FF4A47240F26B113D98FFF703F86DABDE
:102D100019463A463D98ADF8B491ADF8B881FFF741
:102D200057F8C4F82C6B3D9928460BF097FB4FF4ED
:102D3000A47240F291113E98FEF7ECFF6DAB19467C
:102D40003A463E98ADF8B491ADF8B881FFF740F837
:102D5000C4F8646B3E9928460BF080FB4FF4A472D4
:102D600040F2B7113F98FEF7D5FF6DAB19463A46D2
:102D70003F98ADF8B491ADF8B881FFF729F8C4F8E1
:102D80009C6B3F9928460BF069FB4FF4A47240F20C
:102D9000DD114098FEF7BEFF6DAB19463A464098EC
:102DA000ADF8B491ADF8B881FFF712F8C4F8D46B60
:102DB000409928460BF052FB4FF4A47240F20321D5
:102DC0004198FEF7A7FF6DAB19463A464198ADF81A
:102DD000B491ADF8B881FEF7FBFFC4F80C6C4199D3
:102DE00028460BF03BFB4FF4A47240F22921429895
:102DF000FEF790FF6DAB19463A464298ADF8B49194
:102E0000ADF8B881FEF7E4FFC4F8446C4299284657
:102E10000BF024FB4FF4A47240F24F214398FEF7CD
:102E200079FF6DAB19463A464398ADF8B491ADF8C9
:102E3000B881FEF7CDFFC4F87C6C439928460BF0AF
:102E40000DFB4FF4A47240F275214498FEF762FF27
:102E50006DAB19463A464498ADF8B491ADF8B881D7
:102E6000FEF7B6FFC4F8B46C449928460BF0F6FAA6
:102E70004FF4A47240F29B214598FEF74BFF6DABD7
:102E800019463A464598ADF8B491ADF8B881FEF7C9
:102E90009FFFC4F8EC6C459928460BF0DFFA40F22E
:102EA000811261214698FEF735FF6DAB19463A460F
:102EB0004698ADF8B491ADF8B881FEF789FFC4F833
:102EC000246D469928460BF0C9FA40F281128721F9
:102ED0004798FEF71FFF6DAB19463A464798ADF885
:102EE000B491ADF8B881FEF773FFC4F85C6D4799F3
:102EF00028460BF0B3FA40F28112AD214898FEF754
:102F000009FF6DAB19463A464898ADF8B491ADF853
:102F1000B881FEF75DFFC4F8946D489928460BF020
:102F20009DFA40F28112D3214998FEF7F3FE6DAB72
:102F300019463A464998ADF8B491ADF8B881FEF714
:102F400047FFC4F8CC6D499928460BF087FA40F248
:102F50008112F9214A98FEF7DDFE6DAB19463A461B
:102F60004A98ADF8B491ADF8B881FEF731FFC4F8D6
:102F7000046E4A9928460BF071FA40F2811240F231
:102F80001F114B98FEF7C6FE6DAB19463A464B989B
:102F9000ADF8B491ADF8B881FEF71AFFC4F83C6EF5
:102FA0004B9928460BF05AFA40F2811240F2451133
:102FB0004C98FEF7AFFE6DAB19463A464C98ADF80B
:102FC000B491ADF8B881FEF703FFC4F8746E4C9964
:102FD00028460BF043FA40F2811240F26B114D98F3
:102FE000FEF798FE6DAB19463A464D98ADF8B49190
:102FF000ADF8B881FEF7ECFEC4F8AC6E4D992846EA
:103000000BF02CFA40F2811240F291114E98FEF72B
:1030100081FE6DAB19463A464E98ADF8B491ADF8C5
:10302000B881FEF7D5FEC4F8E46E4E9928460BF041
:1030300015FA40F2811240F2B7114F98FEF76AFE7E
:103040006DAB19463A464F98ADF8B491ADF8B881DA
:10305000FEF7BEFEC4F81C6F4F9928460BF0FEF930
:1030600040F2811240F2DD115098FEF753FE6DAB35
:1030700019463A465098ADF8B491ADF8B881FEF7CC
:10308000A7FEC4F8546F509928460BF0E7F940F2B8
:10309000811240F203215198FEF73CFE6DAB1946B8
:1030A0003A465198ADF8B491ADF8B881FEF790FE6C
:1030B000C4F88C6F519928460BF0D0F940F2811278
:1030C00040F229215298FEF725FE6DAB19463A468B
:1030D0005298ADF8B491ADF8B881FEF779FEC4F816
:1030E000C46F529928460BF0B9F940F2811240F2B0
:1030F0004F215398FEF70EFE6DAB19463A46539892
:10310000ADF8B491ADF8B881FEF762FEC4F8FC6F7B
:10311000539928460BF0A2F940F2811240F2752132
:103120000698FEF7F7FD6DAB3A4619460698ADF8DE
:10313000B491ADF8B881FEF74BFE41F23403069925
:10314000E65028460BF08AF940F2811240F29B21AA
:103150000798FEF7DFFD6DAB3A4619460798ADF8C4
:10316000B491ADF8B881FEF733FE41F26C030799D4
:10317000E65028460BF072F92022D0215046FEF787
:10318000C9FD0423ADF8B0310223ADF8B4310323F7
:103190004FF4C879ADF8B8316DAA3B466CA95046DA
:1031A0000BF06EFE4346CDF800800B2210215046F6
:1031B000CDF804900BF06CFD4A461E2150460BF0F2
:1031C00018FC782150460BF0DCFB41F26C136B9A33
:1031D0005146E25028460BF041F926229E215846DE
:1031E000FEF798FD4FF0FF336A9A41F2AC1113607D
:1031F00041F2B012ABF8348044F80180A35041F2A0
:10320000B41304F593521C32039204F5965218320B
:10321000049204F599521432059204F59C5210322E
:10322000069204F59F520C32079204F5A25208321E
:10323000169204F5A5520432179204F5AA521C32D4
:10324000189204F5AD521832199204F5B0521432A6
:103250001A9204F5B35210321B9204F5B6520C3296
:1032600044F803801C920E4B04F5B95208321D92AB
:103270001B6804F5BC524646043204F5BC5808F1FC
:1032800018081E922BB96021064B074A074838F0F0
:10329000C7F8074B1B887BB9064B034A6121F5E74A
:1032A000D47108203DC90308ACCB03087FC90308CB
:1032B000D8710820C0C90308D04B3146186800F007
:1032C0004BFECF4A03460A21404615F0ECF841F286
:1032D000B813584644F803800DF082FFC94B4FF0F5
:1032E00014086E93012339465846ADF8BC310DF0F1
:1032F00097FF594628460BF0B1F843460898CDF899
:103300000080B92269214FF4A077FEF710FD41F249
:10331000E813E75041F2EC13A022E75041F2F0131A
:10332000E25041F2FC13E65041F2F4134FF4345BE7
:10333000E65041F2F8136FF0FF0A44F803B041F28F
:103340002C234FF6E07944F803A004F59153A3F839
:10335000109041F2E413689A0899E25028460BF065
:103360007DF843460998CDF80080B9228F21FEF7F9
:10337000DEFC04F593531F6041F26423A022E75062
:1033800041F26823E25041F27423E65041F26C238B
:10339000E65041F2702344F803B041F2882344F828
:1033A00003A0039B549AA3F8109041F25C2309995F
:1033B000E25028460BF052F843460A98CDF80080B8
:1033C000B922B521FEF7B3FC41F2BC23E75004F566
:1033D00096531F60A02241F2C423E25041F2D02351
:1033E000E65041F2C823E65041F2CC2344F803B042
:1033F00041F2E42344F803A0049B559AA3F81090EB
:1034000041F2B8230A99E25028460BF027F84346C8
:103410000B98CDF80080B922DB21FEF788FC41F241
:103420001833E75041F21C33A022E75004F59953BA
:103430001A6041F22C33E65041F22433E65041F257
:10344000283344F803B004F59A53C3F800A0059B51
:10345000569AA3F8109041F214330B99E250284683
:103460000AF0FCFF43460C98CDF80080B92240F2E8
:103470000111FEF75CFC41F27433E75041F27833FE
:10348000A022E75041F27C33E25041F28833E6500B
:1034900004F59C531E6041F2843344F803B041F2BA
:1034A0009C3344F803A0069B579AA3F8109041F26E
:1034B00070330C99E25028460AF0D0FF43460D982D
:1034C000CDF80080B92240F22711FEF730FC41F21E
:1034D000D033E75041F2D433A022E75041F2D83341
:1034E000E25041F2E433E65041F2DC33E65004F5B9
:1034F0009F53C3F800B041F2F83344F803A0079B90
:10350000589AA3F8109041F2CC330D99E250284616
:103510000AF0A4FF43466298CDF80080B92240F239
:103520004D11FEF704FC41F22C43E75041F23043C9
:10353000A022E75041F23443E25004F5A2531E604A
:1035400041F23843E65041F23C4344F803B041F2C3
:10355000544344F803A0169B599AA3F8109041F2E3
:1035600028436299E25028460AF078FF43460E98B5
:10357000CDF80080B92240F27311FEF7D8FB41F27A
:103580008843E75041F28C43A022E75041F2904338
:10359000E25041F29C43E65041F29443E65041F23E
:1035A000984344F803B041F2B04344F803A0179B9A
:1035B0005A9AA3F8109041F284430E99E25028469B
:1035C0000AF04CFF43460F98CDF80080B92240F234
:1035D0009911FEF7ACFB41F2E443E75041F2E843B6
:1035E000A022E75041F2EC43E25041F2F843E650AA
:1035F00041F2F043E65041F2F44305E0E071082067
:1036000080C8030838C7030844F803B041F20C53DC
:10361000699A44F803A004F5A853A3F8109004F5A0
:10362000A7531A600F9928460AF018FF43461098CE
:10363000CDF80080B92240F2BF11FEF778FB04F507
:10364000AA531F6041F24453A022E75041F248536D
:10365000E25041F25453E65041F24C53E65041F2ED
:10366000505344F803B041F2685344F803A0189B48
:103670005B9AA3F8109041F23C531099E25028460F
:103680000AF0ECFE43461198CDF80080B92240F2D2
:10369000E511FEF74CFB41F29C53E75004F5AD53A6
:1036A0001F60A02241F2A453E25041F2B053E65011
:1036B00041F2A853E65041F2AC5344F803B041F252
:1036C000C45344F803A0199B5C9AA3F8109041F2EC
:1036D00098531199E25028460AF0C0FE43461298CA
:1036E000CDF80080B92240F20B21FEF720FB41F219
:1036F000F853E75041F2FC53A022E75004F5B053D1
:103700001A6041F20C63E65041F20463E65041F264
:10371000086344F803B004F5B153C3F800A01A9B42
:103720005D9AA3F8109041F2F4531299E2502846A2
:103730000AF094FE43461398CDF80080B92240F277
:103740003121FEF7F4FA41F25463E75041F2586335
:10375000A022E75041F25C63E25041F26863E65018
:1037600004F5B3531E6041F2646344F803B041F2C0
:103770007C6344F803A01B9B5E9AA3F8109041F26F
:1037800050631399E25028460AF068FE43461498A5
:10379000CDF80080B92240F25721FEF7C8FA41F275
:1037A000B063E75041F2B463A022E75041F2B8633E
:1037B000E25041F2C463E65041F2BC63E65004F5C6
:1037C000B653C3F800B041F2D86344F803A01C9B81
:1037D0005F9AA3F8109041F2AC631499E250284626
:1037E0000AF03CFE43466398CDF80080B92240F2CF
:1037F0007D21FEF79CFA41F20C73E75041F2107301
:10380000A022E75041F21473E25004F5B9531E6050
:1038100041F21873E65041F21C7344F803B041F2D0
:10382000347344F803A01D9B609AA3F8109041F2F2
:1038300008736399E25028460AF010FE4346159833
:10384000CDF80080B92240F2A321FEF770FA41F2D0
:103850006873E75041F26C73A022E75041F2707335
:10386000E25041F27C73E65041F27473E65041F24B
:10387000787344F803B041F2907344F803A01E9BA0
:10388000619AA3F8109041F264732846E2501599AA
:103890000AF0E4FD204671B0BDE8F08F7047704734
:1038A000704741607047704701230372704770474B
:1038B0007047034610B4C46841686210E40701EB26
:1038C00002009B6848BF8A585DF8044B48BFD35834
:1038D000184743682BB183682BB9C06800F001001A
:1038E0007047184670470120704710B504460C21F8
:1038F00036F0C6F9204610BD10B504464FF4AE713F
:1039000036F0BEF9204610BD10B50446102136F041
:10391000B7F9204610BD10B510F0F0FDBDE810401D
:103920000368DB6B18470000F8B50446002517460E
:103930000E4610F0BFFE104BC4F83C511C600F4BFC
:10394000C4F8405123600E4BC4F84851C4F84431C8
:103950000C4BC4F84C511868C4F85051C4F8547159
:10396000C4F85861036829469B689847284600F0C8
:10397000B9FA2046F8BD00BFD071082004CC030876
:10398000ECCB03087C710820064BC0F84801C0F856
:103990004C310023C0F8503100F5A273C0F840311B
:1039A000704700BFED3A00082DE9F04707469068E0
:1039B0009946036888461B6A1546DDF820A098479B
:1039C00044F2BF73984205D8A321424B424A434870
:1039D00037F026FD686803681B6A98470F2803D8EC
:1039E0003F4B3D4AA421F2E7E86803681B6A984709
:1039F0000B2803D83B4B384AA521E8E710F07EFDA1
:103A0000043010F0B9FDD9F8000010B10368DB688C
:103A10009847D9F8000010B103681B6898473868C8
:103A200010B103685B699847D8F8000010B10368CB
:103A30005B689847386810B103681B689847D8F8E6
:103A4000000010B103689B689847E868002103688C
:103A50005B6A9847044620B1002343600372224BFF
:103A60000360A868002103685B6A9847064608B1AE
:103A7000FDF77AFA6868002103685B6A9847054693
:103A800010B13146FDF748F8C9F80040C8F80050B9
:103A90003E60E5B12B1DCAF80030C5F808A03368B8
:103AA000F5633046DB6898472B6828461B689847C3
:103AB0002146304612F0D8FD236820461B699847FE
:103AC000236820465B6998472846BDE8F0872B4667
:103AD000E1E700BF74CC030889CE030802CD0308D8
:103AE00043CD0308E6CD030858CC030807B5D0F84A
:103AF000583100F59E710093D0F85421034B0448CF
:103B0000FFF752FF03B05DF804FB00BFC47108204B
:103B1000C071082013B5002249B102AB019203F82D
:103B2000052D0268946801AAA04702B010BD08469E
:103B3000FBE7C0897047008A7047C088704780885B
:103B40007047807A00F07F007047807AC009704724
:103B5000002070479FED010A704700BF0000000081
:103B6000406A7047806A704770478B88C069DB0A7B
:103B70000A6850F823001044704710B5C2B1137B97
:103B8000B3B1547BD27A240204F4E0641443026A91
:103B900098B202EB840213888B4202D192F90200A0
:103BA00010BD05D8013880B204320028F3D1F7E700
:103BB0000020F5E710B504462C2136F061F82046C8
:103BC00010BD000030B504468BB0BDF860500895BC
:103BD000BDF85C5007959DF8505006959DF84C50E7
:103BE00005959DF8485004959DF8445003959DF81F
:103BF000405002959DF83C500195BDF83850009515
:103C000012F0BEF82046064B2360159BE361169B1D
:103C10002362199B63621A9BA3620BB030BD00BF85
:103C200098CF03087047000030B5124D8FB02B6855
:103C300013F001031BD13F2209920F4A012408927D
:103C40000E4ACDE90B33CDE906320A9305930422DF
:103C5000CDE901330A23CDE9032400932246084924
:103C60000848FFF7AFFF08482C6037F0F7FB05481E
:103C70000FB030BDD031062068D2050864D20508E7
:103C8000A89C0508D4310620253C000810B5002466
:103C900004600C6014601C6010BD704730B5134D9B
:103CA0008FB02B6813F001031DD13F220992104AF7
:103CB000012408920F4ACDE90B3307920222CDE985
:103CC000054204220A93CDE9023201932823049489
:103CD00000934422302308490848FFF773FF08483F
:103CE0002C6037F0BBFB05480FB030BD003206201A
:103CF000F4D005084CD60508449D0508043206207A
:103D00009B3C00087047000030B5144D8FB02B6805
:103D100013F001031FD13F220992114A0124089296
:103D2000104A072107920C22CDE90B33CDE905217A
:103D30000A930422CDE901431423CDE9032400931F
:103D400040F26D321B2308490848FFF73BFF084843
:103D50002C6037F083FB05480FB030BD30320620B1
:103D60006CD2050850D60508FCA0050834320620A0
:103D7000053D0008704710B50446042135F080FF6A
:103D8000204610BD08B503290FD8DFE801F00A026C
:103D9000060A00F015F8406808BD00F011F88068C8
:103DA000FAE700F00DF80068F6E70020F4E70000FD
:103DB000004870470CD00308052070470220704768
:103DC000004870476032062010B5FFF79DFF044C95
:103DD0002060FFF763FF6060FFF726FFA06010BD63
:103DE0006032062000207047002070470EB403B5F3
:103DF00003AB53F8042B0021019311F0E5FA02B054
:103E00005DF804EB03B070470CB407B504AB53F88E
:103E1000042B019311F0D8FA03B05DF804EB02B063
:103E20007047000010B5044612F098FCE38E04EBD6
:103E300043035884636C5BB3238F2BB9C521174BA5
:103E4000174A184837F0ECFA10B3204613F083FDF8
:103E5000238F012B03D8144B144ACB21F1E7E28EB8
:103E600040F63F10531C9BB21946092B88BFA3F1A3
:103E70000A0104EB4101498C814209D10A2B28BF78
:103E8000002304EB4202508C04EB4303588451841A
:103E90002046BDE8104013F061BC00BF70D003089D
:103EA0009DD1030879D00308BDD00308CBD0030807
:103EB00010B5044613F019FC2046BDE8104012F07E
:103EC00049BC10B586B002AC84E806001A460AABBD
:103ED00005930193099B21460093089B0FF094FEE4
:103EE00006B010BD38B5D8B9114B12481B6812493D
:103EF000BBB11A689C681A4402605A681C441A4490
:103F00000A606CB100220D4B1A80FFF759FF05467D
:103F1000FFF754FF0A4B1C600A4B1D600A4B1880C8
:103F200038BD0A4B03600A4B0B600A4B1C68E8E77C
:103F30006C32062070320620743206207832062059
:103F4000D4710820DC710820D871082078D60508C3
:103F500068D6050874D60508044B1B6853F8210081
:103F6000034B1B6803EB4000704700BF7432062010
:103F700070320620012380F8781080F8793070477D
:103F8000002070474164003118BF0121014B1970B6
:103F9000704700BF7B71082000207047836B0BB116
:103FA0000846184770474FF6FF707047406803682F
:103FB0009B69184770477047704700009022044B78
:103FC00083F8762383F8872383F88423704700BF20
:103FD00000E100E0094A0A49D3680A48C3F30A032A
:103FE000013B9BB20B801169C1F30A0101390180C9
:103FF0001364536B43F0010353637047006801403F
:10400000B2320620B0320620014B986A704700BFDA
:10401000846801400122024B996243F8602C70478A
:10402000846801407047242303FB0101002381F8C9
:104030002430704780F82C10704710B504463021AA
:1040400035F01EFE204610BD38B504464FF4005131
:1040500015F068F923685D6E10F050FA01462046AD
:10406000A8472368064AD3F888500649002320460B
:10407000A8476268044B5A64044A536038BD00BFC5
:10408000D8541420D89C0820B43206208032062050
:1040900010B531B90A4B0B4A40F2D2210A4837F029
:1040A000BFF9C0E90F12003218BF012207490A7098
:1040B00002681946BDE81040D2F88C20104700BFB6
:1040C0006ED30308FFE00308A6D303087A71082023
:1040D00008B5094B1B888B4203D8084B1B889342B9
:1040E00005D9074B074A9E21074837F099F9074B36
:1040F0001980074B1A8008BD707108207271082062
:104100000BD30308BCE00308A6D30308767108208C
:104110007871082008B531B1044B054A4FF491710C
:10412000044837F07DF990F8250008BD88D20308CF
:104130008CD603089CD2030810B531B1064B074A50
:104140004FF48E71064837F06BF940681146BDE8B0
:10415000104003681B6B184788D20308D7DC03089C
:104160009CD2030808B531B1044B054A4FF48A715B
:10417000044837F055F9C06808BD00BF88D203086D
:104180001EDE03089CD2030870B504460D4629B113
:104190000D4B0E4A5E210E4837F042F94068114639
:1041A0000368DB689847606803689B6A98472368E0
:1041B000E06084F828505E6A29462B462046B446C3
:1041C000BDE870400122604788D2030878DA03080E
:1041D0009CD203082DE9F041044617460D4629B14B
:1041E0000E4B0F4A4E210F4837F01AF940683946F6
:1041F000026896681A46B047606803689B6A9847E9
:104200002368E06084F828505E6A29462B462046E1
:10421000B446BDE8F0410122604700BF88D20308E0
:1042200004D903089CD2030808B529B1054B064AF6
:104230004021064837F0F4F8C0E905328160016199
:1042400008BD00BF88D20308AFD703089CD203087B
:1042500014F092BF14F0BCBF0AF057BE0AF0C7BFFB
:1042600010B504460BF0FAFB23682046BDE8104069
:10427000D3F8AC3018470AF07BBF90F87A301BB106
:10428000406803681B6818471846704710B590F8D7
:10429000784090F834100C4B8C421A7809D03AB917
:1042A0000A490B4A08881488108001220C801A7071
:1042B00010BD002AFCD0064A0449148808880C80E6
:1042C00010800022F3E700BF74710820727108208B
:1042D0007071082070B5044629B1274B274A6E211A
:1042E000274837F09DF8052A2BD8DFE802F0032590
:1042F0002B30373F406803681B69984708B3012398
:1043000084F82530002384F82630A360236194F8D4
:104310002730B3B96468236820469B6A98472368AE
:104320000546DB6A2046984785420AD12368204625
:10433000BDE870409B691847002380F8253080F85D
:10434000263070BDC3610023A3602361F9E7C36118
:10435000012380F8263080F82830F4E7002301227A
:1043600080F8253080F82630C261EDE7003318BFB1
:10437000012380F82730E4E788D20308E5D3030857
:104380009CD203082DE9F34105461646984629B10B
:10439000164B174AE921174837F042F8406803687E
:1043A0001B699847F8B1144C012120680BF0B8FB49
:1043B00007464146684611F0A9F9104BBDF90210B5
:1043C0001B88BDF90020686803FB0122016807EB28
:1043D0004202CD693146A84720680368DB6A02B013
:1043E000BDE8F041184702B0BDE8F08188D203086B
:1043F0006CDF03089CD203087C71082076710820CA
:1044000008B590F8243033B1084B094A40F26B11DB
:10441000084837F005F8012280F8242081F834306C
:10442000CB860B870B63184608BD00BFDBD20308A1
:10443000B7DB03089CD20308F8B5044629B13F4B0B
:104440003F4AA9213F4836F0EBFF90F825301BB9D1
:1044500090F82630002B6FD000273B4B1B6893F859
:104460006B10236984F826700B44236194F828307C
:10447000002B54D0136810465B6965689847E6695D
:104480002B682EB331465B6A284698472B6828462E
:10449000DB6AE669984786422CBF00260126E76161
:1044A0002B6828469B6A9847A368E0600133A360A5
:1044B000D4E90432A0695A43A36843439A4239D9E4
:1044C00094F82C1069BB012184F828103046F8BDFF
:1044D000226A62B1D3E9097328469847216A0144E8
:1044E0002846B847A368226A26621344A36094F85A
:1044F00027602B6826B19B69284698470646CFE778
:104500009B6A284698472B680746DB6A28469847E7
:10451000874201D22B68EEE784F82560C0E70126C8
:10452000C6E7D31AB3FBF0F30BB92362CBE7013B29
:104530002362C9E70021C7E70126C7E788D203083D
:1045400052D503089CD203087C7108204FF48002E6
:10455000034BDA6080221A6110221A61704700BF93
:1045600000E100E04FF480020A4BC3F88C20BFF357
:104570004F8FBFF36F8F8022C3F89020BFF34F8F10
:10458000BFF36F8F1022C3F89020BFF34F8FBFF39C
:104590006F8F704700E100E008B5054B1A68D2073D
:1045A00004D4012203481A6036F058FF024808BDBF
:1045B0007C320620B93F00080400002010B5144CDE
:1045C000236823B3134B144A1B6C11888B4213D1FD
:1045D000124B198806F0C4FD226892F86A30013344
:1045E00082F86A3000F0DAFA20680BF037FABDE89A
:1045F0001040002001F0A8BA06F0B2FD2068036860
:104600001B6A9847BDE81040002001F0B7BA10BD02
:104610007C71082000680140B2320620B0320620CA
:1046200008B50E4800F068FC0D4B0E4A01211A60D7
:104630000022C3E90222C3E90422C3E9062283F867
:10464000242083F8252083F8262083F8271083F878
:10465000282083F82C105A6008BD00BFB432062011
:104660008032062050D2030803685B6C1847012093
:10467000704700000F4B82B0D3F8882042F48022AC
:10468000C3F88820D3F8882002F480220192019A8E
:104690001A6E42F480221A661A6E22F480221A667A
:1046A000054B064A1A624FF48002054BDA6002B0ED
:1046B000704700BF000C024658790820CD4600081C
:1046C00000E100E040F2EF3070470000024B1B6851
:1046D000586803685B6918477C71082008B50B2887
:1046E0000BD8DFE800F01206100A0A0A0A080808C8
:1046F0000808012008BD0520FCE7054B054A662196
:10470000054836F08DFE0020F4E70220F2E700BFF6
:1047100067E103083AE2030882E1030808B50A28C2
:1047200009D8DFE800F010060E080808080606069B
:104730000600012008BD054B054A8721054836F0D3
:104740006FFE0020F6E70220F4E700BF67E10308F0
:1047500084E2030882E10308F8B50C46487FFFF7BE
:10476000BDFFA77F05463846FFF7B8FF0646384627
:10477000FFF7D4FFA38A628BD21A494B1A64A18A2D
:10478000628B521A9A61A18A228B521A1A6158635B
:10479000A18AE28A42EA01425A642269DA636268C3
:1047A000DA602268402A70D010D8042A3BD0202A30
:1047B0006BD0237F45EA0365394B45F40035DD6155
:1047C000617FA27F914267D0364A4BE0B2F5807F8D
:1047D0001BD0B2F5007F23D0802AEAD1A068021D49
:1047E000DA62227F45EA026545F40035DD615E62EA
:1047F00022695A610278EAB1012A35D02A4B2B4A44
:1048000040F211112A4836F00BFE217F294A42EA74
:104810000162DA61E2681A625E6222695A6120E02E
:10482000217F254AF3E7227F45EA026545F40035FA
:10483000DD61F1E7D9694288501E21F47F420121F0
:1048400022F0100242EA0022DA61154BDA6942F0E6
:104850002002DA61DA699206FCD410229A600029FB
:10486000B2D0164A1A60F8BDDA69408822F47F4255
:10487000217F22F01002013842F01002FF3942EA93
:10488000002218BF0121DA61DFE7237F45EA0365D3
:1048900045F40035024BCBE740F20122E2E700BFCE
:1048A00000B00240010201004DE10308FCE10308F1
:1048B00082E103080A00020009000200010202006E
:1048C00010B5887F0C46FFF729FF1C4B5863A18A5F
:1048D000E28A42EA01425A642269DA63628BA18A5F
:1048E000521A1A642268082A16D1A18A628B521AB7
:1048F0009A61A18A628B521A1A615862217F104A0A
:1049000042EA0162DA61E2681A6222695A61226946
:10491000DA600C4A1A6010BD0022D8611A61E168A1
:104920000A0A480902F4784200F4FC600243C1F329
:10493000C4010A439A63044AECE700BF00B0024096
:104940000900010001020200010203004FF480028D
:10495000044B0360044BC3F88C20BFF34F8FBFF3AD
:104960006F8F7047B4E1030800E100E010B5044622
:10497000FFF7ECFF204640F6A45135F081F92046C0
:1049800010BD000001231C22084903720868084B6F
:1049900002FB0030007E20B1086802FB003000F00E
:1049A000C9BF086802FB003000F082BF40930620B8
:1049B0001000002010B590F8A03D0446ABB9036884
:1049C0009B6A9847174B1A681C235343164AD35CBB
:1049D000012B09D1154A126832B9227A22B984F81A
:1049E000A03D2046FFF7CEFF10BD037A4BB1002358
:1049F00003721C200B4B1A680B4B00FB023001F0BA
:104A00001BF8606803681B6898470028ECD1637A3C
:104A1000002BE9D0236884F8A00D5B6A2046BDE82E
:104A20001040184740930620100000203C930620B9
:104A300010B50446406803681B68984758B9637A04
:104A40004BB1237A3BB984F8A03D23682046BDE8EA
:104A500010405B6A1847084B1A681C235343074AE7
:104A6000D35C012B06D1227A22B984F8A03D2046DE
:104A7000FFF788FF10BD00BF409306201000002004
:104A800070B5054600262C460A4B0C3068602E7225
:104A90006E7244F8203B602221460BF03FF905F589
:104AA0005A63E6602434A342FBD185F8A06D284602
:104AB00070BD00BFB4E10308034B1A68D207FCD4F1
:104AC00023229A60704700BF00B0024030B50F4CFF
:104AD0002568ED07FCD42325A5600225090441F0D3
:104AE0000101FF2B65636164E0630AD008496562D8
:104AF00041EA0363E361074B22626061E060236087
:104B000030BDE561039BA363034BF8E700B00240AF
:104B1000090001000100020001000300012108B5A5
:104B20000022084609F049F90A4B186028B92821E3
:104B3000094B0A4A0A4836F073FC0022042101207E
:104B400009F0E2F9074B186018B9074B034A2C210A
:104B5000F0E708BD00330620CFE2030883E3030833
:104B600018E30308FC32062041E30308024B4FF030
:104B7000FF31186809F070B900330620014B18683E
:104B800009F098B900330620024B0021186809F09B
:104B900063B900BF00330620FFF7F0BF00230348CE
:104BA0001A460349006809F0EFB900BFFC3206203D
:104BB00008000020002313B5074C1A4601A92068FD
:104BC00009F016FA4FF0FF33002201A9206809F01E
:104BD0000FFA02B010BD00BFFC3206200120704762
:104BE0000C2070470C2303FB0100083070470C2396
:104BF00003FB0100083070470120704744F2C07089
:104C0000704744F2C07303FB01000830704744F260
:104C1000C07303FB0100083070470120704710206B
:104C2000704700EB01100830704700EB01100830AE
:104C300070470846FEF7A8BE10B50446024B036055
:104C400009F0F6FB204610BD24E4030810B5044625
:104C5000FFF7F2FF2046142135F012F8204610BD70
:104C600010B50446024B036009F0E2FB204610BD7C
:104C7000F0E3030810B50446FFF7F2FF204644F2C4
:104C8000C87134F0FDFF204610BD000010B5044689
:104C9000024B036009F0CCFB204610BDBCE30308C7
:104CA00010B50446FFF7F2FF2046182134F0E8FF64
:104CB000204610BD10B50446084B036000F58F4038
:104CC0007430FFF7B9FF04F12C00FFF7C9FF04F1BE
:104CD0001400FFF7DBFF204610BD00BF58E40308B7
:104CE00008B50248FFF7E6FF08BD00BF08330620FD
:104CF00010B50446FFF7DEFF204644F6681134F095
:104D0000BFFF204610BD00002DE9F341FFF750F82A
:104D100000240546FFF750F8234601462246284660
:104D2000009413F065FC244D244B254A20461A605C
:104D3000FFF7D8F82146284618F088FC214B224F6F
:104D4000AB60224813F0BCFB3B68DB072ED4204C41
:104D5000204E214B06F1180504F1140004F12C0833
:104D60006060C4F80880E6602561236009F062FB9A
:104D70001A4B4046636109F05DFB194B3046E36214
:104D800009F058FB174B06F114003360FCF73EFBAB
:104D9000224606F114012846FCF76CFB2846FEF774
:104DA000F3FD012310483B6036F058FB0F4802B07A
:104DB000BDE8F04100F07EBEEC8A0620E0710820DC
:104DC000E88A0620707C0620043306200C000020B0
:104DD00008330620FC7A062058E40308BCE30308E5
:104DE000F0E3030824E40308E14C0008348A0620B9
:104DF00008B525F0D9FE4FF4F0714FF44870012248
:104E00002EF036F9BDE808400121084631F0EABE2F
:104E100001480AF0DEB800BF348A0620F7B5134D0A
:104E2000134B144F144E28463B60FFF729FE3046C3
:104E300018F0FEFB114810F083FC4FF448734FF458
:104E4000F0720F4CCDE9003229463B4632462046EF
:104E500014F000FA0B4B23600023C4F8AC30C4F804
:104E6000B030094BC4F8A83003B0F0BD907C0620E8
:104E700004E803088C7C0620EC8A0620707C06205F
:104E8000348A06202CE703081CE803080148FFF7D2
:104E90005DBD00BF907C06204069704790F84000DF
:104EA0007047036B23B9C06A003018BF01207047F8
:104EB0000120704780687047704710B50C46043079
:104EC0000FC884E80F0010BD7047000008B5034A02
:104ED000034B40F2F311034836F0A2FA3EE6030812
:104EE000E4EC0308ADE4030810B50446482134F0AF
:104EF000C7FE204610BD000000220E4B10B5114623
:104F000004460360C0E90522C0E90722C0E909227E
:104F1000C0E90B22C0E90D22C26380F84020C0E93D
:104F20000322C0E90122012008F047FF024B18606C
:104F3000204610BD74E50308B42B072030B4154695
:104F4000026B42B1C46B406B0C1B2044294630BC41
:104F50001A4636F0BDBEC06A0844F7E710B5036BC9
:104F600073B1C36B426BC91A531898785C7800040C
:104F7000525C40EA0420DB78104340EA036010BD35
:104F8000C26A5318525C59789878000440EA0120AC
:104F9000F1E7036B43B1C36BC91A436B5A185278DC
:104FA000585C40EA02207047C36A5A18585C53782C
:104FB00040EA03207047000070B50446006B0D46C0
:104FC0001646D8B1A36B934208D209230D4A84F840
:104FD0004030AF210C4B0D4836F022FA0368DB68F5
:104FE0009847206B32460368616B1B69984710B97C
:104FF0000D2384F84030606BE56370BDE06A0844BF
:10500000FBE700BFC6E6030856E50308ADE4030866
:105010002DE9F041436904462BB9214B214AF52182
:10502000214836F0FDF908228169FFF7C5FFA16923
:1050300020460431FFF792FF43F2300646F2643512
:10504000A169A36A084400F108029A4220D2636968
:105050000930013320F0010163610822A16120467B
:10506000FFF7AAFFA1692046FFF793FFA1698046D9
:1050700002312046FFF78DFFA16907460431204623
:10508000FFF76CFFB045DBD1AF42D9D1012004E07E
:10509000012300206361236AA361BDE8F08100BFA2
:1050A00064E40308B0E50308ADE4030870B50368E1
:1050B000002914BF0D460125DB6A04469847A84223
:1050C00004D223682046DB6A98470546E66905F165
:1050D0008053013B06EB0316102206F1080120461F
:1050E000FFF76AFF06F110012046FFF737FF236A3A
:1050F000043B0344C4E9055370BD000000212DE9C1
:10510000F0410446816180F840104822FFF754FFC7
:10511000A5690423634A29462046FFF70FFF48B1DB
:10512000032340F23D1184F840305F4A5F4B6048F2
:1051300036F076F905F10801A16104235D4A2046A5
:10514000FFF7FCFE38B10423574A84F8403040F2A0
:105150004511594BEBE705F10C01A1610423574AB6
:105160002046FFF7EBFE074638B105234E4A84F888
:1051700040304FF4A671524BD9E705F1100120469B
:10518000FFF7ECFEA669054620B94E4B464A4FF4A0
:10519000A971CCE706F1080804234B4A4146204692
:1051A000FFF7CCFE002846D0062384F840300423C5
:1051B000464A06F10C012046FFF7C0FE00283CD00D
:1051C000072384F8403045440C2229462046FFF747
:1051D000F3FE3F4F05F1080604233A4631462046C8
:1051E000FFF7ACFE94F84030002845D1002B53D196
:1051F00005F10C030435A36129462046FFF7AEFEF6
:105200003044606229462046FFF7A8FE0644042287
:1052100031462046FFF7D0FE04232E4A3146204671
:10522000FFF78CFE00283BD101236361A369E6618F
:105230002362BDE8F0810127B9E7002FC3D006F152
:1052400014012046FFF78AFE4FF47A73B0FBF3F0A7
:1052500006F1240160602046FFF780FE06F134016C
:10526000A0602046FFF77AFE06F13801E060204694
:10527000FFF774FE2061A6E773B9A36AAB42B7D902
:10528000291D2046FFF76AFE083005440C222946F6
:105290002046FFF791FE9DE70A2384F84030C8E7D7
:1052A0000B23FAE7E0E4030899E60308E5E40308C2
:1052B000ADE40308FEE4030803E503081BE5030867
:1052C00020E5030836E5030842E5030847E503083F
:1052D0004CE5030851E50308C0E90A2100220263F6
:1052E000FFF70CBF002310B50163C3620B680446CF
:1052F0009B6808469847A0622046BDE81040FFF72B
:10530000FDBE000073B51E4C1E4D236000232B60B4
:105310001D4D1E4C29601E4D23602A6001251D4C29
:105320001D4A23601D4C236013601D4A13601D4AF3
:105330001370C2E90233C2E904331376937613770C
:10534000C2E90933C2E90B3382F8343082F83530D0
:1053500082F83630144B55765E6B06B115761C25F7
:10536000246805FB0422DC684FF4C0736343009398
:1053700053684FF4504204F031FD002002B070BD7C
:10538000942B0720A02B0720A82B0720A42B072055
:10539000AC2B07204093062044930620B02B072017
:1053A000882B072010000020482B07204B68012B7A
:1053B0000ED1CB681A071EBF23F00F031033CB604A
:1053C0008B68180703D023F00F0310338B607047EE
:1053D000022B0DD1CB681A0703D023F00F03103333
:1053E000CB608B685A07F2D023F007030833EDE750
:1053F000002BECD1CB685807F3D023F00703083318
:10540000EEE7000030B40B4B1A680A441A600A4BEE
:105410001B689A420CD2094C9A1A2568B2F5504F73
:105420002944216028BF4FF4504230BC04F046BDEF
:1054300030BC7047A02B0720AC2B0720A82B0720DF
:105440002DE9F843474CDFF838E12368DFF834C131
:10545000103323601C23DEF80010DFF82C9103FBCF
:1054600001C1D9F80060404F4E6140493F680D6965
:1054700080467D4306EB0516C9F800604D69266835
:105480002746B542744665460E460CD3CA684FF4AB
:10549000C071DEF800404A4303FB04C35968BDE80D
:1054A000F84304F00EBD0120DEF8001059430CF85B
:1054B0000100DEF8001003FB01C18A600021DEF864
:1054C000002003FB02C21161326B22B1DEF8002022
:1054D00003FB02C318763B68B2699A4225D91C22A5
:1054E000236802FB035300229A762368013323606A
:1054F0002368012B4FF01C0388BF226022685343AE
:10550000EB5C33B10221404604F0A5FC0122184BAC
:105510001A601C212368F26801FB03534FF4C07129
:1055200040464A43596804F0CCFC3B68B2699A4251
:105530000BD81C222368022102FB035501230D4ACC
:10554000AB764046136004F086FC0B4B1B681B7A5D
:105550002BB90A4B1868BDE8F84308F0ABBCBDE8AE
:10556000F88300BF882B0720902B0720482B0720AB
:10557000A42B07209C2B07208C2B0720B42B072063
:10558000B02B072010000020942B072072B6FEE7F6
:105590000122014B1A6070479C2B072038B51B4D28
:1055A00004462A6842B11A4B1B682BB105F07AF801
:1055B000042827D0012038BD164B1868037A6BB930
:1055C000154B1A681C235343144AD35C012B05D195
:1055D0000F4B1B6813B903681B699847104A13687F
:1055E000012B0DD10F4B19681C234B430B49CB5C8E
:1055F00033B92B6823B902212046136004F0F8FE6A
:105600000220D8E7204604F05FFCD3E79C2B07205C
:105610003C9306208C2B072040930620100000208E
:10562000A42B0720B02B072070B50546002A36D0E2
:10563000002B34D002241A480461EC6826071CBFF2
:1056400024F00F04103404604FF4C864446004680C
:10565000144E2409C4602C6914F00F0418BFC4F15F
:1056600010048460104C0F48FFF74CFE6A6C25460E
:105670000E4B1A603046FFF791FF20602368022B23
:1056800005D10B4B4FF0FF31186808F0E5FB2B6894
:10569000012BEFD10023074A1360074A136070BD46
:1056A000482B0720C0790820982B07208C2B072037
:1056B000B42B07209C2B07203C9306202DE9FF47A5
:1056C0009846436904460E4617462BB92A4B2B4A87
:1056D000C1212B4835F0A4FE08228169FFF76CFC3C
:1056E000A1692046FFF755FCA16982460231204698
:1056F000FFF74FFCA169814604312046FFF72EFCDD
:10570000A169A36A083142189A42054626D243F29B
:1057100030039A4516D146F26433994512D188B1C7
:105720000246A1612046FFF747FC0C9B0146CDE9EC
:105730000183009733462A462046FFF775FF6369C9
:1057400001336361A3692B448DB1A361A369626ACC
:10575000013323F001039342A3610AD10120236A9C
:105760006061A36180F0010004B0BDE8F0870833F8
:10577000EBE70020F6E700BF64E40308E3E5030875
:10578000ADE403082DE9F8430446884617468169CD
:1057900008221E46FFF710FCA16920460431FFF7DE
:1057A000DDFBA1690546024608312046FFF704FCEF
:1057B0000222374B0146E0681A6102071EBF20F043
:1057C0000F0210321A604FF4C86208BF18605A60A6
:1057D0001A68B8F902901209DA60B8F80620B8F928
:1057E00000E04A440FFA82FC2269C3F81490624533
:1057F00028BF624694469A61B8F804204FEA1E1802
:10580000724412B2824228BF024602F10F001A62AD
:10581000000912F00F02986218BFC2F11002A0EB4B
:105820000800D8629A630EF00F001CF00F02186394
:1058300018BFC2F1100209F00F005863DA63C3F811
:105840001CE02A46C3F8248012483B46FFF75AFD65
:10585000626C114C114B25461A60114B1E600D4EA7
:105860003046FFF79BFE20602368022B05D10D4BCD
:105870004FF0FF31186808F0EFFA28680128EFD1DF
:105880000023094A1360094A1360BDE8F88300BF8A
:10589000482B0720C0790820982B07208C2B072045
:1058A000902B0720B42B07209C2B07203C9306202D
:1058B000F0B51C490369CD6A4FF4C077EC1A056155
:1058C00002258A6BC2EB04124C6A12F00F062344C5
:1058D0000C6907FB03F74FEA041403FB04F4124BB3
:1058E00018BFC6F110065D6390F81AC01504BCF12C
:1058F000000F13D0C96BC1F11001294359644169EC
:10590000C2F548720C44DC631A64084A1E61DA610D
:1059100042683A44DA60064A1A60F0BD45F0100564
:105920005D64ECE7482B072000B002400B0009FF44
:10593000010201002DE9F04F01698BB00446374A9E
:10594000002966D1136BD06A677E01388142D2F894
:105950003490A07E0CBFD2F838804FF00008002FA2
:1059600014BFCE464FF0000E002854D0D2F83CC0F1
:105970004FF0320A4FF4C075D2F810B0506A0EFBE7
:105980000BF60AFB06FA084403FB0BF245430BFB3C
:1059900000A0013102EB0010216102EB061200268B
:1059A000B9F1000F00D007B926760121C3F1100329
:1059B000A3EB0803ADF81830CEF11003A3EB0C03F2
:1059C000ADF81A30164B174F079363693A441844E1
:1059D000154B059018680292049601918DF821608C
:1059E0008DF82260036801A95B68984702220F4B7B
:1059F0005A634FF010125A640D4ADF631E641E6131
:105A0000DA61626815440B4ADD601A600BB0BDE8CC
:105A1000F08F002397E78446AAE700BF482B0720B2
:105A200010002003489306208C2B072000B0024072
:105A30000B0009FF010201000D4B0269DB6A9A426B
:105A400015D100230B4A0370116883600131116086
:105A5000116803760129437688BF1360837E13B1F2
:105A60000122054B1A60054B186808F023BA7047ED
:105A7000482B0720409306203C930620B42B072098
:105A8000704770477047000010B505480C464FF44A
:105A9000005103F0D9FD08B10120207010BD00BFF6
:105AA0000008024210B50446082134F0E9F8204607
:105AB00010BD704738B5044604F1A805FEF7C4FAD6
:105AC000284600F007F9012384F87030014B256166
:105AD000636138BDB82B0720FEF796BAFEF79ABA75
